:040000006F00B00CD1
:100004000000000000000000BE0A0000C00A00005A
:1000140000000000C808000000000000000000000C
:10002400C8080000C808000000000000000000002C
:10003400C808000000000000C8080000000000001C
:10004400C8080000C8080000C8080000C80800006C
:10005400C8080000C8080000C8080000C80800005C
:10006400C8080000C8080000C8080000C80800004C
:10007400C8080000C8080000C8080000C80800003C
:10008400C8080000C8080000C8080000C80800002C
:10009400C8080000C8080000C8080000C80800001C
:1000A400C8080000C8080000C8080000C80800000C
:1000B400C8080000C8080000C8080000C8080000FC
:1000C400C8080000C8080000C8080000C8080000EC
:1000D400C8080000C8080000C8080000C8080000DC
:1000E400C8080000C8080000C8080000C8080000CC
:0C00F400C8080000C8080000C808000090
:100100002A8311C62300B3007D16050365FE828095
:100110007971054506D622D426D202C602C802CA83
:1001200002CC02CE7D29992E13054006452E71651D
:1001300013050520F92EB704002083A5C405096422
:1001400013054427EF00307BEF00300F83A5C40573
:1001500013054427EF00307A6800A52DB2450965E4
:1001600013058528EF003079C24509651305452A36
:10017000EF007078D24509651305C52BEF00B07705
:10018000E24509651305452DEF00F0768124A5248D
:10019000FDBF011122CC26CA4AC84EC606CEAE8487
:1001A000014489694949B387840083C507001385E1
:1001B000C92E0504EF003074E31724FF6244F240B7
:1001C000D2444249B24909651305452F05616F10B4
:1001D000E00183474500A1466388D70203C7E500D5
:1001E0006307D7029D466381D7026304D7028D4619
:1001F000638CD7006301D702A5466387D700A54764
:100200006304D7009307F00F2300F6008280A14714
:10021000E5BF9D47D5BF8D47C5BF5D710965A6C2C6
:100220001305852FCAC052DC56DA5AD85ED662D47E
:1002300066D286C6A2C44EDE6AD06ECE23170100F7
:100240000549EF00B07A096B096C096A93840118BB
:10025000130540066124214533152501412413056A
:100260008B31EF00B0780145EF00301B0144814D28
:100270009949130D400613853118EF00502019E5F8
:10028000850D93FDFD0F63EEB90F01440504420493
:1002900005454180A124E310A4FF99476314F900A8
:1002A000594429A205096DB7938581C34945D535C0
:1002B00003C544008945094423818400EF00505E52
:1002C000AA8511C91305CA33EF00F062E31C39FD9A
:1002D00013046004E1A883C524000965130585346F
:1002E000EF007061154523818400CD2A096513054F
:1002F0000537EF00506003C5440037040020930524
:1003000004099306E10013060040EF007050AA852F
:1003100011C91305CA33EF00105EE31539F9130450
:10032000700469A00355E1009307040993050409CB
:1003300003CD5700B93D13861118930504091385A1
:1003400081C3413D83C51400096513050539EF00DC
:10035000905A03C54400EA85EF0050582A8401E909
:100360000965EA851305853AEF00F05881A0AA8552
:100370001305CA33EF003058E31639F31304B00FF6
:1003800035A013058C3DEF001057938581C313856D
:100390004118EF00F042AA85E30805F01305CA33BF
:1003A000EF007055E31039F113045004B640228574
:1003B000264496440649F259625AD25A425BB25BCD
:1003C000225C925C025DF24D61618280411106C641
:1003D00005270545EF00E0757D4681451385011829
:1003E0000533B2403705002013062053814513051D
:1003F000454A410131B341114AC022C426C206C652
:100400009384011803C50400EF00207885472A84EF
:100410006311F50209651305053FEF00305D238088
:100420008400A38204002244B24092440249410164
:10043000EDB31DED096513058540EF00D04B7D46FA
:1004400003C454008145138501185D399307A0103A
:100450003304F402370500201305454AB2409244A4
:1004600002491306A010814522952244410149B951
:10047000B24022449244024941018280B7070020E1
:1004800083A7C70537177A0013070720B3D7E702FA
:1004900093F7F70F238BF1801307803EB387E702B2
:1004A000239AF1808280B7F700E0D8438146799B98
:1004B000D8C303C761813306A70290CBD4CB98433E
:1004C0001367070198C398431367170298C3D8436B
:1004D000058B75DF9843799B98C38280B7F700E05E
:1004E000D8438146799BD8C303D741813306A702FD
:1004F00090CBD4CB98431367070198C398431367F5
:10050000170298C3D843058B75DF9843799B98C32E
:100510008280797122D42A8411658545110506D619
:100520006926930700202312F100371501408D47FB
:100530003EC44C00E147130505803EC651223745B5
:100540000140B70708000C081305058022C83ECCFF
:1005500002CA231E0100492837450140854513057D
:100560000580052AB25022544561828001114AC893
:100570003749014022CC26CA4EC606CEAE89328407
:1005800081441309098063CA8400F24022856244D1
:10059000D2444249B24905618280930500044A85EC
:1005A000112A65DDB3879900838507004A85850494
:1005B000C205C181DD28C1BFB7060020AA8703A5F7
:1005C000860513878135AA9763EBE700375700202C
:1005D000130707806365F70023ACF60482807D551E
:1005E000828023ACA180828003570501F577FD1737
:1005F0007D8F83D76500797122D426D206D6D98F14
:100600002318F5000357C500FD779387379F7D8F2B
:1006100083D745002A84AE84D98F03D78500D98F2C
:1006200003D7A500D98F2316F5008357450103D7BB
:10063000C500C207C18393F7F7CFD98F231AF500FE
:100640006800412AB7470140938707806311F4048B
:10065000E2476547B387E702984093064006B250E9
:100660000A079254B3D7E70233D7D702B3F7D702BA
:100670001207920793872703B3D7D702BD8BD98F71
:10068000C207C1832314F400225445618280D247FB
:10069000C9B78357C50091C50967D98F2316F500DF
:1006A000828079777D17F98FD5BF93F5F51F2312D7
:1006B000B5008280035505006D8D3335A000828022
:1006C0009C4513F7070113F8F70001C7D8413368B9
:1006D000E8003727024013070703184393568701A2
:1006E000BD8ADDEA8546238ED18037170140631726
:1006F000E50003D7050035832390E50083D5050089
:1007000013F7F50F31C318418146054E930E800251
:100710003D4F930F800421433316DE00B3F8C5002C
:10072000631016036392D70950C913962600B318B5
:10073000CF0093C8F8FF33F7E8003316C800518F95
:100740008506E39B66FC18C11307F00F6375B704B9
:1007500054410146054E930E8002130F800421433D
:10076000130786003317EE00B3F8E5006311170393
:100770006390D70558C9931826003D4733171701D2
:100780001347F7FFF98EB3181801B3E6D800050632
:10079000E31866FC54C1828037170140E310E5F688
:1007A00003C7C18121DFB1B7E391F7F910C9B5BF24
:1007B000E393E7FD18C9C1B7B7170240D843B7069E
:1007C00040FFFD16758FD8C3D8435A05598DC8C34D
:1007D0008280371702405443B7177A002146B18A06
:1007E000938707206397C6045C435843C166C98357
:1007F000BD8B758F8907C5466393D700C94709EF3D
:1008000037470240130707801843418B09CF37173A
:100810007A001307072021A8371702405843931680
:10082000E700E3D606FE37173D0013070790B387AE
:10083000E7021CC137160240544209671307874577
:100840009182BD8ABA9683C60600B3D7D7005CC131
:100850005442A1829D8ABA9683C60600B3D6D700B9
:1008600014C55442AD829D8A36970347070093868C
:100870000181B3D7E7005CC5584239830D8B3697A9
:1008800003470700B3D7E7021CC9828099C5371711
:1008900002405C4BC98F5CCB8280B7170240D84BBB
:1008A0001345F5FF798DC8CB828099C53717024073
:1008B0001C4FC98F1CCF8280B7170240984F134539
:1008C000F5FF798D88CF828001A097010020938168
:1008D000E1F8174100201301E1721725000013050C
:1008E00065BF97F5FF1F9385E5711386418163FA14
:1008F000C5008322050023A0550011059105E3EAF8
:10090000C5FE13854181938581356377B50023202A
:1009100005001105E36DB5FEFD42739002BC8D42EA
:1009200073904280930280087390023097F2FFFF29
:100930009382826D93E2320073905230EF00400157
:1009400097F2FFFF9382027D739012347300203080
:10095000B71702409843B706FFF04111136717001D
:1009600098C3D84337060200758FD8C39843B7069B
:10097000F7FEFD16758F98C39843B706FCFFFD166A
:10098000758F98C3D843B70601FFFD16758FD8C37E
:1009900037079F0098C702C402C69843C166558FA7
:1009A00098C3B716024005679C42F18F3EC6A24726
:1009B00085073EC4B24781E7A247E397E7FEB71732
:1009C00002409C431397E7006357070685473EC6DE
:1009D00032478547631FF704B7170240D843B7066D
:1009E000C1FFFD16D8C3D843D8C3D8431367074007
:1009F000D8C3D843758FD8C3D843B7063D00558FA9
:100A0000D8C39843B7060001558F98C398439316EF
:100A10006700E3DD06FED843B7160240719BD8C3DA
:100A2000D84313672700D8C32147DC42B18BE39E2C
:100A3000E7FE4101828002C661BF3717024054437E
:100A4000B7177A002146B18A938707206397C604B7
:100A50005C435843C166C983BD8B758F8907C54602
:100A60006393D700C94709EF374702401307078050
:100A70001843418B09CF37177A001307072021A8A5
:100A80003717024058439316E700E3D606FE3717A0
:100A90003D0013070790B387E7023717024054431E
:100AA0000967130787469182BD8A36970347070077
:100AB000B3D7E70037070020232EF704828001A078
:100AC00001A0B707005003C70700C1669386F6BFB1
:100AD0001377F70B2380E70003C717001377B70FCF
:100AE000A380E70003D76703758F239BE70282800B
:100AF000B707002003A7C7054111B747950806C6E9
:100B00009387074009456300F702B7E7B805938765
:100B1000078005456309F700B777DC02938707C0B4
:100B20006314F70001454939B24085450565410127
:100B3000B1BB85476315F504B7070050130700F8EC
:100B40002380E700A3800700A38107001307800428
:100B5000A386E7001387011E98CF1387011AD8CF09
:100B6000A38D0702238F0702130790F82380E70065
:100B70007D572383E7000D472381E7008280B70775
:100B8000005019472380E7008280370700508347D1
:100B90006700AA86858B99E30945828085472303F0
:100BA000F7008347570013F5170009C981CA894721
:100BB000E384F6FE03451700058905058280B70723
:100BC000005003C557000581134515000589828033
:100BD00037070050834737001375F50793F7070869
:100BE000C98FA301F700828085476313F500D1BD4B
:100BF000B707005003C70700136707042380E70007
:100C000003C7170013674700A380E70003D76703F4
:100C100013670740239BE7028280411122C42A8484
:100C2000014506C67537713D854763EE8700370776
:100C300000508347170093E72700A300F70001EC5B
:100C40002D45EFF0BF89370700508347170093F712
:100C5000D70FA300F7000945EFF05F88B7070050F2
:100C600003C76700058B01CB03C75700058B01C77E
:100C700005472383E700B2402244410182803707C1
:100C8000005083475700858BA9C3411106C622C473
:100C900083471700858B99E72A8415372300A40022
:100CA00011E19937B707005003C7170001451367D3
:100CB0001700A380E70003D76703B24022441367FD
:100CC0004700239BE7024101828059458280797168
:100CD00022D426D24AD04ECE52CC56CA5AC85EC66C
:100CE00062C466C206D66AC0B7070050A38DB702B9
:100CF000C16AAA893289238FB702135A45008144F9
:100D000037040050894B394C294BA54CFD1A230C54
:100D1000340323037401130D803E83476400898BE1
:100D200091EB7D1D420D0545135D0D01EFF0AFF711
:100D3000E3150DFE230C040283476400898B81E7D1
:100D40001305E00FADA88347740093F70704D1EFB4
:100D5000034574003D89630C850963176505630BC2
:100D60000908630659017D19420913590901FD1447
:100D700093F4F40F5145EFF00FF383476400858B34
:100D800081CF1305800CEFF00FF283471400858BA1
:100D9000ADC785472303F400850493F4F40FE3986B
:100DA00064F71305000221A863099A03B547630598
:100DB000FA008547E316FAF855DD13650502B250CF
:100DC000225492540259F249624AD24A424BB24BDF
:100DD000224C924C024D45618280856793879780B3
:100DE000B3D7A700858BD9F7C9BF0145C9BF130584
:100DF000E002F1B71305A002D9B75945C9B7797117
:100E000026D24ECEB284AA89130540064AD006D611
:100E100022D452CC56CA5AC85EC62E89EFF0AFE82B
:100E200099C02390040037040050A1470966231E8F
:100E3000F4021306067181451305000D493D631A3E
:100E400005129147A30DF402230FF4029387011AB0
:100E500003D46700938A011A75C06301090E838762
:100E6000070063C40706096BCE8B370A0050130BCB
:100E70000B7113054006EFF00FE3DE876373340157
:100E8000A287231EFA0281470357CA03639FE71014
:100E90008345EA035A8641451D3D61ED8347EA03D8
:100EA00093C74700230FFA028357CA03B307F440DE
:100EB00013940701418081C88357CA0303D70400F4
:100EC000BA972390F40055F495A8896A370A005020
:100ED000938A0A71138B011EFD1913054006EFF06A
:100EE0008FDC8345BA03568613050009CD3351E1E3
:100EF0008347BA0393C74700A30DFA0203578A003A
:100F0000A2876376870083578A00C207C1831D8C3E
:100F10004204418091C403D704003E972390E4002B
:100F2000014793160701C1826390D7063E99835704
:100F30008A00ADE7B7070050239E0702130540065D
:100F4000EFF06FD6B707005083D7C703414599C369
:100F50001305000909661306067191458D3B11E9D9
:100F6000B707005003D7C70309C783D7870091C3CA
:100F70005D45B250225492540259F249624AD24A13
:100F8000424BB24B45618280B306670103C606003F
:100F9000B306E90005072380C60061B783578A00BE
:100FA000B3F7F900C1FB15F871B783460900338721
:100FB000FA008507C2072300D7000509C183E9B5F8
:100FC000011122CC26CA06CEA1472300F50037071F
:100FD00000019387011A1307076898C337071200A7
:100FE000D8C32A84034505001306E100AE84013D01
:100FF00019E983C774000357E1002300F400C547D3
:1010000063E3E7005D45F2406244D24405618280BB
:10101000797122D4B707000226D24AD04ECE06D626
:101020001387011A93870768B2891CC33686B707EE
:1010300004002A89AE845CC336C6D13339E932460E
:101040000D47835606006375D70403C7340083C673
:1010500024009387011A2207558FBA8663F3E900AB
:10106000CE86370700022310D6001307076898C3FF
:1010700037070400D8C3035706002254B250F24980
:10108000A6854A85925402592393E700456185BBA2
:101090005D45B250225492540259F2494561828012
:1010A000411122C426C206C69387011A13070050B5
:1010B00098C32391B700AE840146814523A207005F
:1010C0003D3B2A8411E5268521361545EFF00FC1F9
:1010D000B240228522449244410182800567938771
:1010E000011A1307079098C32391B7000146814561
:1010F00023A2070029B3397132D436D63EDA2ED274
:101100003AD842DC46DE83A781808C4754102A8679
:101110003E8506CE36C6C929F240216182801C5127
:10112000011122CC26CA4AC806CE4EC652C400457A
:10113000AA842E8999E3EF00D0587C50858B81EBEF
:101140008357C40093F7072099E3284C3924835729
:10115000C400A18B99C31C48BDEFA28526850D2A2A
:101160003DC9FD547C50858B81EB8357C40093F7B8
:10117000072099E3284CDD22F24062444249B249FB
:10118000224A2685D244056182801CC4050963D7A2
:101190000700184C63CBE702638945031C401387A3
:1011A000170018C02380B7001C4483450900FD17B1
:1011B000E9FD1CC463D407022286A94526851D28A3
:1011C000FD57E300F5FAA94471BF228626851D204C
:1011D000E31C35FD79B7FD59294AF9B71C4013873F
:1011E000170018C029472380E700F1BFAA8503A58F
:1011F000818035B7011122CC26CA4AC806CE4EC618
:101200002A89AE84328409C51C5199E3EF00704BE2
:101210001C4C1CC48357C400A18B99C31C4891EF7C
:10122000A2854A85B52011C9FD54F2406244424965
:10123000B2492685D244056182801C40184893F942
:10124000F40F93F4F40F3385E7405C486347F500EF
:10125000A2854A85EF00702E61F91C44FD171CC45D
:101260001C401387170018C0238037015848930784
:1012700015006309F7008357C400858BDDD7A947A4
:10128000E395F4FAA2854A85EF00302B59DD69BF5A
:10129000411122C426C206C6AA8403A581802E84D9
:1012A00009C51C5199E3EF00D0418317C40013F71F
:1012B000870021EB13F7070109EB254798C093E757
:1012C00007042316F4007D55A5A8918B8DC74C58B3
:1012D00089C9930744046384F50026854920232A9D
:1012E00004028357C4002322040093F7B7FD23169A
:1012F000F4001C481CC08357C40093E787002316E2
:10130000F4001C4889EF8357C4001307002093F7AB
:1013100007286386E700A2852685EF0050498317DA
:10132000C40013F7170015C35848232404003307DB
:10133000E04018CC1848014501E713F7070841F3CE
:10134000B240224492444101828013F72700814633
:1013500011E3544814C4F9BF828082808280D1CDC9
:1013600083A7C5FF011122CC06CE1384C5FF63D32A
:1013700007003E942AC6F52A1387C1821C433245D2
:1013800081EB2322040000C36244F2400561EDA218
:10139000637DF4001040B306C4006396D700944305
:1013A000DC43B29614C05CC0F9BF3E87DC4399C3EE
:1013B000E37DF4FE14433306D700631F860010401C
:1013C000B29614C33306D700E390C7FC9043DC43C6
:1013D000B29614C35CC34DBF6375C400B1471CC152
:1013E00065B71040B306C4006396D7009443DC434E
:1013F000B29614C05CC040C341BF828041114AC054
:10140000138981828327090022C426C206C6AA84C2
:101410002E8491E78145EF00F05C2320A900A2858E
:101420002685EF00305C7D59631A25017D54B2405A
:1014300022852244924402494101828013043500EE
:101440007198E30685FEB305A4402685EF00905908
:10145000E31F25FDE1BF011126CA93843500F198F1
:101460004AC806CE22CC4EC652C4A104B1472A892E
:1014700063F6F406B14463E5B4064A85DD28938932
:10148000C18283A709003E8425E8A6854A85BD3729
:10149000FD572A84631AF50C03A40900A287D5EB33
:1014A00055CC032A040081454A85229AEF009053C7
:1014B0006316AA0A1C404A859D8CA6858137FD5774
:1014C000630EF5081C40A6971CC083A70900D9CF5E
:1014D000D8436313870823A2070081A0E3DD04F843
:1014E000B1472320F9000145F2406244D244424909
:1014F000B249224A056182801440858E63C8060481
:101500002D47637DD70204C033079400639687029A
:1015100023A0E9005C4014C35CC34A85B1281305CD
:10152000B4009307440061993307F540E30EF5FAE0
:101530003A94898F1CC04DBFD8C3E9BF584063950A
:10154000870023A0E900D1BFD8C3C1BFA287404014
:1015500025BF3E84DC43A1B7BA8795BFB14723209E
:10156000F9004A85112841B704C145BF2322000074
:10157000029013850182D5B313850182C5B31C4641
:10158000FD171CC663D90700184E63C5E700A947BD
:101590006393F50085B11C422E851387170018C28E
:1015A0002380B7008280011122CC26CA4AC84EC6C9
:1015B00052C406CE2A89AE893284B304D6007D5A3D
:1015C00063149400014509A8834504004E864A85AA
:1015D0007D370504E31645FFF2406244D244424998
:1015E000B249224A05618280357122CD26CB4AC993
:1015F0004EC706CF52C556C35AC1DEDEE2DCE6DA7C
:10160000AA89AE843289368409C51C5199E3EF005A
:10161000500BFC50858B81EB83D7C40093F70720D8
:1016200099E3A84C1D3B83D7C400A18B99C39C4868
:1016300095EFA6854E85A93915C9FC50858B99CFA4
:101640007D55FA406A44DA444A49BA492A4A9A4AD4
:101650000A4BF65B665CD65C0D61828083D7C40062
:1016600093F70720F1FFA84CD539D9BF93070002A3
:10167000A304F1029307000302D22305F10222C65C
:10168000930B5002971A0000938A8AD9054C294B74
:101690004A848347040099C3639C7709B30C2441AF
:1016A000630D2401E6864A86A6854E85ED3DFD57ED
:1016B0006301F51A9257E6973ED283470400638A86
:1016C0000718FD571309140002C802CE3ECA02CC07
:1016D000A309010482D48345090015465685EF000D
:1016E0005022C2471304190031E513F7070109C757
:1016F00013070002A309E10413F7870009C71307C2
:10170000B002A309E104834609001307A002638B1A
:10171000E602F2474A8481462546034704009305C2
:101720001400130707FD6375E6068DC63ECE1DA0A7
:10173000050485B7330555413315AC00C98F3EC844
:10174000228951BF324793064700184336C6634A81
:1017500007023ACE034704009307E002631EF70432
:10176000034714009307A002631AF702B247090463
:10177000138747009C433AC663D30700FD573ECA10
:1017800025A83307E04093E727003ACE3EC8D9B7F3
:10179000B38767032E848546BA9741B7050402CA0A
:1017A000814681472546034704009305140013072B
:1017B00007FD6376E606E1F6834504000D4617153E
:1017C0000000130565C6EF00D01311CD9717000078
:1017D000938787C51D8DC247130700043317A700E1
:1017E000D98F05043EC8834504001946171500002B
:1017F0001305C5C3130914002304B102EF007010D0
:1018000025CD9307000095E74247B24713770710AD
:1018100009CF91073EC69257D2973ED295BDB38766
:1018200067032E848546BA97BDBF9D07E19BA1073C
:10183000D5B7780097060000938626D726860C0831
:101840004E8597000000E7000000FD572A8AE31448
:10185000F5FCFC50858B89EB83D7C40093F70720F8
:1018600081E7A84CEFF09FAF83D7C40093F707043C
:10187000E39807DC1255F1B37800970600009386D1
:10188000C6D226860C084E85112AC1B7797156CA70
:101890009C49BA8A984522D44AD04ECE52CC06D61C
:1018A00026D25AC85EC6AA892E843289368A63D364
:1018B000E700BA872320F9000347340401C78507EE
:1018C0002320F9001C4093F7070291C783270900E2
:1018D00089072320F9000440998891E8130B9401AB
:1018E000FD5B5C4403270900998F63CCF4048347B4
:1018F0003404B336F0001C4093F70702A5EB13063F
:101900003404D2854E85829AFD576303F5041C404A
:1019100011478144998B6399E70044448327090068
:101920009D8C63D3040081441C4418486354F70021
:10193000998FBE94014969047D5B63982405014534
:1019400009A885465A86D2854E85829A631E7501FE
:101950007D55B250225492540259F249624AD24AF9
:10196000424BB24B456182808504A5BF3307D4004A
:1019700013060003A301C70403475404938716000A
:10198000A2978906A381E7049DBF85462286D2855A
:101990004E85829AE30E65FB050945B7797122D41D
:1019A00026D24AD04ECE06D652CC56CA5AC803C802
:1019B000850193078007AA842E843289B68963E261
:1019C0000703930720069386350463E10703630E3C
:1019D000081A93078005171600001306A6A56301D1
:1019E000F814930A24042301040515A89307D8F9D1
:1019F00093F7F70F5546E366F6FE17160000130639
:101A0000E6A78A07B2979C43B29782871C43938AC2
:101A10002504938647009C4314C32381F50485471E
:101A200041AA9C41084313F60708930545000DC2DF
:101A30001C410CC363D807001307D002B307F04062
:101A4000A301E404171600001306C69E294889A0C6
:101A500013F607041C410CC371DEC207C187D9BF4E
:101A60008C41104313F505081C42110611E593F54E
:101A7000050499C1C207C18310C31307F0061716E6
:101A800000001306269B631CE80C2148A3010404F4
:101A9000584018C4634807000C405D8FB68AED9922
:101AA0000CC019CFB68A33F70703FD1A32970347E4
:101AB00007002380EA003E87B3D70703E37507FFDB
:101AC000A147631EF8001C40858B91CB58401C48F1
:101AD00063C7E70093070003A38FFAFEFD1AB386DE
:101AE000564114C84E87CA867000A2852685793B68
:101AF0007D5A6313450D7D55B250225492540259BC
:101B0000F249624AD24A424B456182809C4193E746
:101B100007029CC113088007171600001306C6921F
:101B2000A30204050C40084313F805081C411105E5
:101B30006318080013F8050463040800C207C18392
:101B400008C313F7150001C793E505020CC099C33C
:101B500041482DBF18401377F7FD18C0D5BF29485D
:101B600035B790411C43CC491378060813854700CC
:101B70006306080008C39C438CC301A808C31376FE
:101B800006049C4375DA2390B70023280400B68A24
:101B900091BF1C43D04181459386470014C383AA5B
:101BA00007005685B92B01C53305554148C05C4037
:101BB0001CC8A30104043DB714485686CA8526856F
:101BC0008299E30A45F31C40898B8DE7B24748446C
:101BD000E354F5F23E850DB785465686CA852685BF
:101BE0008299E30A65F1050A5C443247998FE3451F
:101BF000FAFEE9BF014A930A94017D5BF5B783972A
:101C0000C500011122CC26CA06CE4AC84EC613F71B
:101C10008700AA842E8479E7D8416345E000B84163
:101C2000635BE00A585445CB03A90400939637013F
:101C300023A004000C5063DE060670488357C400DE
:101C4000918B99C75C401D8E5C5899C33C401D8E9A
:101C50005C540C508146268582977D578357C4007B
:101C6000631DE500944075476369D7063707402038
:101C700005073357D700058B2DC3184823220400CE
:101C800018C01397370163580700FD576314F50018
:101C90009C4091E368C84C5823A024018DCD930744
:101CA00044046385F5002685EFF06FEB232A0402D8
:101CB0001DA00146854626850297FD572A86E31F0B
:101CC000F5F69C40A5DF75476385E70059476394A7
:101CD000E70423A024010145B1A093E70704C2074C
:101CE000C18735A883A90501E38709FE03A905007B
:101CF0008D8B23A0350133093941014791E3D84940
:101D000018C4E35A20FD1C540C50CA864E86268502
:101D100082976340A0028317C40093E70704231649
:101D2000F4007D55F2406244D2444249B249056113
:101D30008280AA993309A940E9B79C49411106C696
:101D400022C426C281EB8144B240224426859244BB
:101D500041018280AA842E8401C51C5191E3952201
:101D60008317C400EDD37850058B19E793F707204C
:101D700081E7284CEFF06FDE2685A28549357C503F
:101D8000AA84858BF1F38357C40093F70720CDFF16
:101D9000284CEFF0AFDC4DBF411122C406C62A84A7
:101DA0002316B5002317C5002320050023220500B4
:101DB000232405002322050623280500232A0500E5
:101DC000232C0500214681451305C505EFE04FB3DF
:101DD00097070000938787275CD0970700009387B9
:101DE000E7291CD4970700009387272E5CD4970718
:101DF00000009387E7301CD800D093870122630A44
:101E0000F400938781286306F4009387012F6319F8
:101E1000F400130584052244B24041016FF0CFD392
:101E2000B24022444101828017E6FF1F130646227A
:101E3000970500009385A5F017E5FF1F1305851C86
:101E400075A04C41411122C406C6938701222A8401
:101E50006383F500DD350C44938781286384F500A6
:101E60002285E13D4C449387012F6387F50022854D
:101E70002244B2404101D1B5B240224441018280A6
:101E8000411197070000938767FA01469145138532
:101E9000012206C623A8F18201370546A545138510
:101EA0008128DD3DB2400946C9451385012F410116
:101EB000E5B5138541826FF04FCA138541826FF0FB
:101EC000EFC9411122C406C62A84E5371C5089C7D0
:101ED0002244B2404101D5B7970700009387A7F687
:101EE0001CD083A70183EDF7613FDDB7797122D460
:101EF0004AD04ECE52CC5AC85EC606D626D256CA54
:101F0000AA892E8A32840149054BFD5B0444832A49
:101F10004400FD1A63D00A0200406DF8B25022540A
:101F20009254F249624AD24A424BB24B4A85025914
:101F30004561828083D7C400637BFB008397E40004
:101F400063877701A6854E85029A3369A900938439
:101F50008406C1B75971A2D42E848395E500A6D218
:101F6000CAD086D6B284368963D305028357C400AB
:101F700093F707088DEB13070040B6502654232033
:101F8000F90098C006599654014565618280300079
:101F90004D2AE34D05FC3247BD67F98F7977BA9733
:101FA00093B71700C9BF814713070004F9B783D758
:101FB000C500797122D406D626D24AD04ECE898B5E
:101FC0002E8491CF930774041CC01CC885475CC83D
:101FD000B250225492540259F249456182807400F1
:101FE0003000AA84853FA2492A892685CE85EFF054
:101FF0008FC601ED8317C40013F7072071FBF19B17
:1020000093E727002316F40075BF8357C40008C068
:1020100008C893E707082316F400B247232A3401BF
:1020200089CF8315E4002685892201C98357C4001E
:10203000F19B93E717002316F4008357C40033E5A0
:1020400027012316A40069B7411122C42E84839569
:10205000E50006C69D22634905007C48AA977CC816
:10206000B2402244410182808357C4007D777D17AE
:10207000F98F2316F400EDB783D7C500011122CCE8
:1020800026CA4AC84EC606CE93F70710AA842E84E5
:102090003289B68991C78395E50089460146CD28E6
:1020A0008357C4007D777D17F98F8315E4002316CD
:1020B000F4006244F240CE864A86B24942492685FF
:1020C000D2440561A1A2411122C42E848395E5006A
:1020D00006C67D287D578357C400631BE5007D77C6
:1020E0007D17F98F2316F400B2402244410182800B
:1020F0000567D98F2316F40068C8FDB78395E500FE
:1021000031A893F5F50F2A966314C5000145828026
:1021100083470500E38DB7FE0505FDB7411122C4D5
:102120002A842E8523AA018206C63922FD5763160A
:10213000F50083A7418391C31CC0B24022444101F2
:102140008280411122C42A842E85B28523AA01826D
:1021500006C6CD28FD576316F50083A7418391C3BA
:102160001CC0B240224441018280411122C42A8411
:102170002E8523AA018206C6E128FD576316F500C5
:1021800083A7418391C31CC0B24022444101828095
:10219000411122C42A842E85B285368623AA018263
:1021A00006C66D28FD576316F50083A7418391C3CA
:1021B0001CC0B240224441018280411122C42A84C1
:1021C0002E85B285368623AA018206C67128FD5760
:1021D0006316F50083A7418391C31CC0B24022441B
:1021E00041018280411122C42A842E8523AA0182C2
:1021F00006C6EFE06FBCFD576316F50083A7418369
:1022000091C31CC0B240224441018280411122C4CA
:102210002A842E85B285368623AA018206C6EFE07F
:10222000EFB4FD576316F50083A7418391C31CC02B
:10223000B2402244410182809307800523AAF182A3
:102240007D5582809307800523AAF1827D55828087
:102250009307800523AAF1820145828093078005B8
:1022600023AAF1827D5582809307800523AAF182FB
:102270007D55828053797374656D436C6B3A20256C
:1022800064487A0D0A000000535953434C4B5F4693
:1022900072657175656E63793A202564487A0D0A16
:1022A0000000000048434C4B5F4672657175656ED7
:1022B00063793A202564487A0D0A000050434C4B5C
:1022C000315F4672657175656E63793A20256448A1
:1022D0007A0D0A0050434C4B325F4672657175654A
:1022E0006E63793A202564487A0D0A0025303278E9
:1022F000200000000D0000005374617274696E6765
:102300002064657669636520656E756D72617469B8
:102310006F6E2E0D000000005265736574205553DA
:102320004220706F727420616E6420736574205552
:1023300053422073706565642E0D0000457272284B
:1023400025303278290D0A0044657669636520617D
:102350006464726573732073756363657373667504
:102360006C6C79207365743A20253032780D0A0040
:10237000436F6E66696775726174696F6E2064651C
:102380007363726970746F723A0D0A09000000007D
:102390000944657669636520747970653A20253053
:1023A00032780D0A0000000043686F73656E206389
:1023B0006F6E66696775726174696F6E207375639D
:1023C0006365737366756C6C79207365743A202548
:1023D0003032780D0A000000446576696365206438
:1023E000657363726970746F723A0D0A09000000B8
:1023F000555342206465766963652064657465633E
:102400007465642E0D0000005553422064657669A2
:1024100063652072656D6F7665640000232D302B37
:1024200020000000686C4C00656667454647000068
:1024300030313233343536373839414243444546FA
:1024400000000000303132333435363738396162BC
:1024500063646566000000000000000001020304E0
:102460000102030406070809000000000000000044
:10247000010203040607080994F5FFFFAAF5FFFF10
:102480006AF5FFFF6AF5FFFF6AF5FFFF6AF5FFFFD8
:10249000AAF5FFFF6AF5FFFF6AF5FFFF6AF5FFFF88
:1024A0006AF5FFFFEAF6FFFFE8F5FFFF94F6FFFF8E
:1024B0006AF5FFFF6AF5FFFF1AF7FFFF6AF5FFFFF6
:1024C000E8F5FFFF6AF5FFFF6AF5FFFF9CF6FFFFE7
:1024D00000000000780A0020E00A0020480B0020DD
:1024E00000000000000000000000000000000000EC
:1024F00000000000000000000000000000000000DC
:1025000000000000000000000000000000000000CB
:1025100000000000000000000000000000000000BB
:1025200003000000780A0020B00B0020004495084A
:0C2530000000002000000000020406086B
:00000001FF
